:100000000C946A060C9487060C9487060C94BA31FB
:100010000C9487060C9487060C9487060C9487062C
:100020000C9487060C9487060C94521B0C940E1BA0
:100030000C9472280C9487060C9487060C948706FF
:100040000C9487060C9487060C9487060C948706FC
:100050000C9487060C942B1C0C9487060C94870632
:100060000C9487060C9487060C9487060C948706DC
:100070000C9487060C9487060C9487060C948706CC
:100080000C9487060C9487060C9487060C948706BC
:100090000C9487060C9487060C9487060C948706AC
:1000A0000C9487060C9487060C948706050109803A
:1000B000A101850319012AB700150126B700950192
:1000C00075108100C0050C0901A101850419012AE0
:1000D000A002150126A002950175108100C00660DE
:1000E000FF0961A1010962150026FF00952075082E
:1000F00081020963150026FF00952075089102C052
:1001000005010906A101050719E029E715002501E8
:10011000950875018102950175088101050719008F
:1001200029FF150026FF00950675088100050819AE
:10013000012905950575019102950175039101C08D
:100140000005010502050305040505050006010675
:100150000206030604060506000701070207030757
:100160000407050700080108020803080408050839
:100170000009010902090309040905090000010039
:100180000200030004000500000101010201030157
:100190000401050100020102020203020402050239
:1001A0000003010302030303040305030004010425
:1001B0000204030404040504000000000000000021
:1001C000000000000000000000000000000000002F
:1001D0000000000000000000000000007E0F00D4BE
:1001E000FFFFFFC7000000780000000000000000D3
:1001F0002A2B280000000000000000000000000082
:1002000000000029000000002C1E3420212224348C
:100210002627252E362D3738271E1F20212223245E
:1002200025263333362E37381F0405060708090AFA
:100230000B0C0D0E0F101112131415161718191A96
:100240001B1C1D2F3130232D350405060708090A14
:100250000B0C0D0E0F101112131415161718191A76
:100260001B1C1D2F3130354C00DA0281FFD9F1DB28
:1002700020A4A62EAF00A0C000A1C800AED580A8C3
:100280001FD300408D1420001E0F0500047F3F1F68
:10029000643214643214783C1E1E140A0543505311
:1002A0004C4B000A0A00556E646566004C6F77651A
:1002B0007200526169736500426173650A004C41C6
:1002C000594552000A001A5445441B0A0080999A65
:1002D000808080B9BA808020202020204465764F1D
:1002E000700A00202020616B61204E686F6B5F4EAA
:1002F000686F5F393420202020202020416E682044
:10030000200320205669797920202020200A00002F
:1003100001010101010101010102020202020202C6
:100320000202030303030303030304040404040499
:10033000040505050505060606060607070707075F
:1003400008080808090909090A0A0A0B0B0B0C0C12
:100350000C0D0D0D0E0E0E0F0F0F101011111112AE
:100360001213131414151516161717181819191A2D
:100370001A1B1B1C1D1D1E1E1F2020212222232490
:1003800024252626272829292A2B2C2D2D2E2F30CF
:10039000313232333435363738393A3B3C3D3E3FE3
:1003A000404142434445464748494A4C4D4E4F50D0
:1003B000515354555658595A5B5D5E5F616264658E
:1003C0006668696B6C6D6F7072737577787A7B7D18
:1003D0007E8082838587888A8C8E8F91939596986C
:1003E0009A9C9EA0A2A3A5A7A9ABADAFB1B3B5B788
:1003F000BABCBEC0C2C4C6C9CBCDCFD1D4D6D8DB5F
:10040000DDDFE2E4E7E9EBEEF0F3F5F8FAFDFFFFFC
:10041000AA7F55402223252628292A2C2D2F303229
:10042000333536383A3B3D3E4042434547494A4CD6
:100430004E5051535557595A5C5E60626466686904
:100440006B6D6F71737577797B7D7F81838587890C
:100450008A8C8E90929496989A9C9E9FA1A3A5A711
:10046000A8AAACAEAFB1B3B4B6B8B9BBBCBEBFC13D
:10047000C2C3C5C6C7C9CACBCCCDCED0D1D2D2D3C8
:10048000D4D5D6D7D7D8D9D9DADADBDBDBDCDCDCDC
:10049000DCDCDDDDDDDDDCDCDCDCDCDBDBDBDADA9F
:1004A000D9D9D8D7D7D6D5D4D3D2D2D1D0CECDCC16
:1004B000CBCAC9C7C6C5C3C2C1BFBEBCBBB9B8B62B
:1004C000B4B3B1AFAEACAAA8A7A5A3A19F9E9C9AB6
:1004D00098969492908E8C8A89878583817F7D7B84
:1004E00079777573716F6D6B6968666462605E5C65
:1004F0005A5957555351504E4C4A4947454342402B
:100500003E3D3B3A3836353332302F2D2C2A2928C0
:100510002625232207087F0807003E5B4F5B3E002D
:100520003E6B4F6B3E001C3E7C3E1C00183C7E3CEC
:1005300018001C577D571C001C5E7F5E1C000018B5
:100540003C180000FFE7C3E7FF0000182418000074
:10055000FFE7DBE7FF0030483A060E00262979293D
:100560002600407F05050700407F05253F005A3CD7
:10057000E73C5A007F3E1C1C0800081C1C3E7F0004
:1005800014227F2214005F5F005F5F0006097F0175
:100590007F00006689956A0060606060600094A2D8
:1005A000FFA2940008047E04080010207E201000A2
:1005B00008082A1C0800081C2A0808001E10101031
:1005C00010000C1E0C1E0C0030383E383000060E99
:1005D0003E0E060000000000000000005F0000006A
:1005E000000700070000147F147F1400242A7F2ACC
:1005F0001200231308646200364956205000000898
:1006000007030000001C224100000041221C0000E2
:100610002A1C7F1C2A0008083E0808000080703051
:1006200000000808080808000000606000002010B2
:10063000080402003E5149453E0000427F40000050
:100640007249494946002141494D33001814127F2F
:1006500010002745454539003C4A494931004121B0
:1006600011090700364949493600464949291E0003
:1006700000001400000000403400000000081422B4
:100680004100141414141400004122140800020143
:10069000590906003E415D594E007C1211127C0042
:1006A0007F49494936003E41414122007F41414155
:1006B0003E007F49494941007F09090901003E4147
:1006C000415173007F0808087F0000417F4100000E
:1006D0002040413F01007F08142241007F404040FC
:1006E00040007F021C027F007F0408107F003E4113
:1006F00041413E007F09090906003E4151215E004B
:100700007F091929460026494949320003017F0122
:1007100003003F4040403F001F2040201F003F405B
:1007200038403F0063140814630003047804030096
:100730006159494D4300007F4141410002040810C6
:100740002000004141417F000402010204004040BA
:100750004040400000030708000020545478400047
:100760007F2844443800384444442800384444280E
:100770007F0038545454180000087E09020018A461
:10078000A49C78007F080404780000447D400000A9
:100790002040403D00007F102844000000417F4081
:1007A00000007C04780478007C0804047800384455
:1007B00044443800FC182424180018242418FC0091
:1007C0007C080404080048545454240004043F44A2
:1007D00024003C4040207C001C2040201C003C4069
:1007E00030403C004428102844004C9090907C00FD
:1007F0004464544C44000008364100000000770077
:1008000000000041360800000201020402003C26FC
:1008100023263C00000000000000404040F0F8F8B3
:10082000FF38FFF8F83FF8F8FF38FFF8F8F04040DD
:100830004000000000000080C0C0C0800000C0C0B8
:100840008000000080C0C000C0C0000080C0C000A8
:1008500000000000C0C0C0C0C000C0C00000000058
:100860000000000000000000000000000000000088
:100870000000000000000000000000000000000078
:100880000000000000000000000000000000000068
:10089000000000C0F0F8FC3E1E06010000007F4191
:1008A00041417F007F4141417F000080C0E07E5B8D
:1008B0004F5BFEC00000C000DCD7DEDEDED7DC0010
:1008C000C000000000000000000000000000000068
:1008D00000000000000000000000494949FFFFFF40
:1008E000FFE0DFBFBF00BFBFDFE0FFFFFFFF494901
:1008F0004900000000001F3F6060E0BF1F007F7FD5
:10090000071E381E077F7F007F7F0E1F3B71600030
:10091000000000007F7F0C0C0C007E7E007F7E03B9
:1009200003007F7E03037E7E03037F7E000F3E7005
:100930003C063C703E0F00327B49493F7E007F7E83
:100940000303001E3F69696F2600000000000000DD
:10095000000000030F1F3F3C7870600000007F41E3
:1009600041417F007F4141417F00307B7F783020D3
:100970002030787F3B0003000F7F0F0F0F7F0F00A9
:100980000300000000000000000000000000000064
:1009900000000000000000000000010101070F0F2F
:1009A0007F0F7F0F0F7E0F0F7F0F7F0F0F0701014C
:1009B0000100000000000000000000010100000034
:1009C0000000000000000000000000000000000027
:1009D0000000000000000000000000000000000017
:1009E0000000000000000000000000000000000007
:1009F00000000000000000000000000000000000F7
:100A000000000000000000000000000000000000E6
:100A100000000000000000000000000000000000D6
:100A200000000000000000000000000000000000C6
:100A300000000000000000000000000000000000B6
:100A400000000000000000000000000000000000A6
:100A50000000000000AF00AE35001E001F002000A7
:100A600021002200290014001A00080015001700B8
:100A70002B0004001600070009000A00E1001D0019
:100A80001B00060019000500E300E200E00022520E
:100A90002800A80035002700260025002400230098
:100AA0002A00130012000C0018001C003400330050
:100AB0000F000E000D000B00E50038003700360077
:100AC00010001100E700E600E40023522C000000B3
:100AD00035001E001F002000210022002900140004
:100AE0001A00090013000A002B000400150016006C
:100AF00017000700E1001D001B000600190005009B
:100B0000E300E200E00001002800A8003500270013
:100B100026002500240023002A0033001C001800B2
:100B20000F000D00340012000C00080011000B0033
:100B3000E50038003700360010000E00E700E60040
:100B4000E40001002C00000001003A003B003C00E2
:100B50003D003E0035001E001F0020002100220045
:100B600001001E021F0220022102220201002E00AB
:100B70002D002E022F0230020100010001000100B1
:100B800001000100440043004200410040003F00DA
:100B900045002700260025002400230031022702FB
:100BA0002602250224022302010031003302330011
:100BB00030002F00010001000100010001000100D0
:100BC00001000100010001000100010001004900D5
:100BD00046006500000000000100E200E000E100C6
:100BE0000000390001007A007B007C007D000000DD
:100BF00001000100010001000100010001000100ED
:100C000001000100010001002A0001000100520062
:100C100001004B002A004C004F00510050004E00D4
:100C200001000000010000000100000001000100BF
:100C3000010001000100010009025B00030100A0A6
:100C4000FA0904000001030101000921110100015A
:100C50002240000705810308000109040100020386
:100C60000000000921110100012222000705820372
:100C7000200001070503032000010904020001030D
:100C80000000000921110100012232000705840340
:100C9000200001120100020000000832FC8702015E
:100CA00000010200010C0353006F0066006C006538
:100CB0000000001A034A006F0073006500660041DF
:100CC00000640061006D00630069006B00000004B7
:100CD0000309040011241FBECFEFDAE0DEBFCDBF51
:100CE00027E0A2EFB1E001C01D92AE36B207E1F7F6
:100CF00011E0A0E0B1E0ECE1FAE602C005900D924F
:100D0000A23FB107D9F70E9499280C949E340C9405
:100D10000000E8EDF0E080818E7F80831092E20099
:100D20001092DA001092E100A0EEB0E08C918160A8
:100D30008C9380818F77808319BCA7EDB0E08C9174
:100D40008E7F8C9380818F7E8083109254070895CC
:100D50002091E4003091E50095E6A9012091EC0096
:100D6000822F817020FF06C08091E80080FF06C0BE
:100D700080E008952091E80022FD1AC0809161076B
:100D8000882389F0853089F08091EB0085FD0FC0C4
:100D90002091E4003091E50042175307F9F2915099
:100DA000E1F684E0089582E0089583E0089581E00B
:100DB00008958091630787FF13C08091E80082FF48
:100DC00006C08091E8008B778093E80004C0809192
:100DD00061078111F2CF0895809161078823D9F3CB
:100DE0008091E80080FFF8CF8091E8008E77ECCF0B
:100DF000982F9093E900242F762F50E0891731F037
:100E00007091EC002091ED005091F00021FD07C0A1
:100E10009F5F973071F78093E90081E008953091EA
:100E2000EB003E7F3093EB003091ED003D7F30933F
:100E3000ED003091EB0031603093EB007093EC00EB
:100E40002093ED005093F0002091EE0027FDE0CFBD
:100E500080E00895B0E0A0E0E0E3F7E00C94F43225
:100E6000C8EDD0E088818F7E8883E7EDF0E0808157
:100E70008160808384E082BF81E080935407888111
:100E80008E7F888302EE10E0F80110821092DA0063
:100E900081EEC82ED12CF601108288818F7788834D
:100EA00088818068888388818F7D888319BC1092AF
:100EB0006107109262071092600710925F0790EE30
:100EC000E92EF12CF70180818B7F808388818160FE
:100ED000888342E060E080E00E94F806F6018081AD
:100EE0008E7F8083F801808181608083808188602B
:100EF0008083F70180818E7F8083888180618883F1
:100F0000CDB7DEB7E8E00C941033FC01809169079F
:100F100090916A0786179707A0F06115710529F46B
:100F20009091E8009E779093E80090E0611571053C
:100F300051F4911108C08091E80082FF34C080E034
:100F40000895BC01F2CF809161078823C1F18530FB
:100F5000C1F18091E80083FD30C08091E80082FDFE
:100F6000EACF8091E80080FFE1CF8091F3002091EB
:100F7000F200382F6115710519F02830310558F04D
:100F800091E02830310509F090E02091E8002E77BB
:100F90002093E800CBCF81918093F10061507109DB
:100FA0002F5F3F4FE7CF80916107882341F0853065
:100FB00041F08091E80083FFBECF81E0089582E098
:100FC000089583E00895089508958091560708953F
:100FD00087E797E7909301088093000888E19AE0FB
:100FE0000FB6F894A895809360000FBE90936000B0
:100FF000FFCF2FB7F89460915007709151078091FF
:101000005207909153072FBF08959C01FC0132961F
:101010009FEF80E04191461751F09F3F19F4411135
:1010200001C0982F8F5F8630A9F79F3F09F408957C
:10103000290F311D97FD3A95F90162830895A3E0C8
:10104000B0E0E5E2F8E00C94FA3220914D073091DF
:101050004E0728173907A1F090934E0780934D074C
:10106000E0914B07F0914C07309751F024E0298331
:101070009B838A830680F781E02DCE010196099536
:101080002396E2E00C941633A3E0B0E0EAE4F8E043
:101090000C94FA322091490730914A0728173907F2
:1010A000A1F090934A0780934907E0914B07F09194
:1010B0004C07309751F023E029839B838A83068075
:1010C000F781E02DCE01019609952396E2E00C947C
:1010D0001633FC01680F791F8FEF91E3219182276E
:1010E00028E030E087FF09C0880F892721503109A7
:1010F000C9F7E617F70791F70895880FF7CFFA01B8
:10110000811101C0FB0109950895EDEFF2E0118214
:10111000828184608283089580913305982F9E7F19
:1011200061F4817082608093330580913605893740
:1011300018F088E78093360508958635B0F38170FE
:101140008465F1CFAF92BF92DF92EF92FF920F933F
:101150001F93CF93DF93182F062FE901493708F02B
:1011600048E7E42FF0E0E15FFC4F011110C0E4918B
:101170005E2F4E2F4983E8835A83DF91CF911F91D1
:101180000F91FF90EF90DF90BF90AF900895202FC8
:1011900030E04491D42EE42EF12C56E0159FC0018E
:1011A0001124EFEFF0E0BF010E94D632812F90E0D2
:1011B000880F991F55E5569FD001579FB00D1124F8
:1011C0008A1B9B0B982F990F890F5F01A21AB30AF4
:1011D000AE9CD001AF9CB00DBE9CB00D11245B2F16
:1011E000089F80011124012F11275F01A01AB10A65
:1011F000AE9C8001AF9C100DBE9C100D11245F01B0
:10120000A81AB108A29EC001A39E900DB29E900D97
:101210001124892F9927E81BF90BEE9DC001EF9D42
:10122000900DFE9D900D1124E92F62307105A1F003
:1012300050F46115710509F49DCF6130710581F09D
:10124000EB2F512F97CF6430710569F080F0663035
:10125000710509F48FCFF4CFE42F4B2F592F8ACF8C
:10126000E42F412F87CFEB2F542F492F83CF4B2FC4
:101270005D2DE12F7FCF80E00895F894E82FE2956F
:10128000EF70F0E031A1282F2F7081E090E001C0D5
:10129000880F2A95EAF7982F9095932391A392A10E
:1012A000892B82A3789408959091AE0292FF06C094
:1012B000282F28712830F9F4877F846093FF06C0B7
:1012C000282F28712831F1F4877E84612091AF02A4
:1012D00020FF06C0382F38713830D9F4877F8160FD
:1012E00021FF06C0282F28712831D1F4877E816123
:1012F00094FD877E0895282F24712430F9F68B7F82
:101300008860DCCF282F2471243101F78B7E88611F
:10131000DDCF382F3171313019F78E7F8860E0CF03
:10132000282F2171213121F78E7E8861E1CF82380B
:101330009105B9F1B0F48133910509F47DC048F409
:101340008932910509F46DC08A32910509F47BC098
:1013500008958533910509F45FC08933910509F13A
:101360000895833E9105D9F138F4803E910529F125
:10137000823E910579F10895863E9105D9F1873E27
:10138000910509F43EC0843E910541F52091AF02DC
:1013900021FF24C08091AE0284FD19C087EE90E049
:1013A00008952091AE02237009F05AC02091AF0237
:1013B00023FF14C089E290E008952091AE0220FD41
:1013C00038C03091AF0230FF09C024FF43C090E025
:1013D00080E008952091AE0222FDF7CF089520917C
:1013E000AE0222FD3AC03091AF0230FD39C024FF79
:1013F000F5CFEDCF2091AE0223FFF0CF24FDE7CF54
:10140000CDCF2091AE0223FD2EC03091AF0231FF2F
:10141000EECF84EE90E008952091AE0225FFDECF5E
:10142000C9CF2091AE0225FD21C02091AF0223FF3C
:10143000D5CF89E390E0D2CF2091AE0226FFCECF68
:101440008AE290E008952091AE0226FFC7CF81E3A3
:1014500090E0089583EE90E0089582EE90E0089584
:1014600080EE90E0089586EE90E0089585E390E0A8
:1014700008950F931F93CF93DF930E949709EC0178
:10148000C11582E5D80708F055C0C11590E5D90708
:1014900008F001C1C03ED10520F5CD3CD10508F0D2
:1014A00092C0C83AD10578F4C53AD10508F083C096
:1014B000C130D10511F1209701F1C430D105E8F414
:1014C000D0E0C0E01AC0C33CD105D0F7C85AD0E084
:1014D000CC0FDD1FC35ADE4F0990D881C02DD464D4
:1014E0000CC0C11580E2D80770F4C11591E0D9078E
:1014F00008F06BC0C83ED10518F7CE01DF91CF913F
:101500001F910F9108958E011127C11580E4D8070E
:1015100008F06CC08D2F8F710E945409C82FC8012C
:101520000E949709D0E0DC2FCC27CC27DF71C82B95
:10153000D92B2CC0C03892E5D907B0F4C03682E56B
:10154000D80708F085C0C03492E5D90708F06BC011
:10155000C03282E5D80708F452C0CF71D0E0DC2F4A
:10156000CC27C16FD06AC9CFC03C92E5D90780F4BF
:101570008C2F8F71C03AD24508F47FC00E94540965
:10158000C82FD0E0DC2FCC27CC27DF71D062B5CFBD
:10159000C03E82E5D80708F477C0CE0196558F3F4C
:1015A000910511F008F08CCFCE0199270E94970980
:1015B000EC01D066A2CFC55AD0E0C65ADE4FC88132
:1015C000D0E0D0649ACFD06598CF8D2F0E94540977
:1015D000182FCE0199270E949709C12FD0E0DC2F48
:1015E000CC27CC27DF71C82BD92B87CFC8010E940D
:1015F0009709CC27DF70C82BD92BD06A7ECF2C2F30
:101600002695269590E2299F900111248C2F8370B6
:10161000C1E0D0E002C0CC0FDD1F8A95E2F7C22BFB
:10162000D32BDD686ACF2C2F26952695277080E274
:10163000289F900111248C2F8370C1E0D0E002C05C
:10164000CC0FDD1F8A95E2F7C22BD32BDC6855CF78
:101650002C2F26952695277090E2299F9001112422
:101660008C2F8370C1E0D0E002C0CC0FDD1F8A95C3
:10167000E2F7C22BD32BDA6840CFC82FD0E0DC2FA3
:10168000CC27C46FD06A39CFDC2FCC27CC27DF71B1
:10169000C06FD06A32CF8C2F8F710E94540955E0F1
:1016A000D695C7955A95E1F7CF70D0E0DC2FCC27BF
:1016B000282F30E084FF05C044E0220F331F4A95F5
:1016C000E1F7C22BD32BD06918CF0E94F9070895F8
:1016D0008091630281111092630208958095909128
:1016E000620298239093620208952091570290918C
:1016F000260256E0291302C080E0089530E0529F90
:10170000F001539FF00D1124E95DFD4F71817613B7
:1017100006C07081781303C07281741304C02F5FF8
:101720003F4F2770E7CF81E0089580915702909155
:101730002602981301C008958F5F8770FACF292F72
:101740009A3078F5863068F590E036E0239F800D7A
:10175000911D1124682F677023E0969587952A952F
:10176000E1F7FC01EE0FFF1FE80FF91FEA5FFD4FE5
:1017700050E040E080E0219130E0062E02C0369536
:1017800027950A94E2F721703327042E01C0220F17
:101790000A94EAF7822B4F5F5F4F4330510559F7A8
:1017A000089580E00895292F9A3098F5863088F5BD
:1017B00090E036E0239F800D911D1124282F277083
:1017C00041E001C0440F2A95EAF723E096958795FA
:1017D0002A95E1F7FC01EE0FFF1FE80FF91FEA5F02
:1017E000FD4F30E020E070E05191DF011197CB0117
:1017F000022E02C0969587950A94E2F78170819532
:101800008527842385278C932F5F3F4F2330310515
:1018100059F708958093C70208959091C70221E077
:1018200030E0F90101C0EE0F8A95EAF7D90102C054
:10183000AA0FBB1F6A95E2F7EA2B01C0220F4A9557
:10184000EAF7892F8E23E81305C0292B822F0E94E7
:101850000A0C089520952923F9CF21E030E001C03A
:10186000220F8A95EAF720958091C70282230E9471
:101870000A0C08959091580280958923809358020C
:10188000282F277091F4282F082E000C330B921765
:10189000130659F09091AF0292FF07C08595859588
:1018A00085950E942D0C10925802089521E030E099
:1018B00001C0220F8A95EAF78091C702822B0E940D
:1018C0000A0C0895809364020895982F92959F7052
:1018D00011F0892F94E0282F2695269511F09E5F10
:1018E000822F869509F09F5F892F0895B0E0A0E0D0
:1018F000ECE7FCE00C94F4326C017B0164E670E0F0
:1019000088E70E943430EC0197FD12C010E000E03F
:10191000F601E00FF11F849164E670E00E94A030B0
:10192000EC01892B29F40F5F1F4F0E151F0581F75E
:101930000E941631CE01CDB7DEB7E8E00C9410332B
:101940008091470790914807911103C091E0892742
:101950000895882369F062E070E086E59AE00E94CD
:10196000760C892B19F0809147070895109247074C
:1019700080914707EBCFCF93C091470780914807ED
:101980008823D1F00E94F907605A75418F4F9F4F0D
:1019900060934307709344078093450790934607ED
:1019A000C11108C062E070E084E59AE00E94760C04
:1019B000892B29F0C09147078C2FCF91089581E0A2
:1019C00080934707F7CF0F931F93CF93DF938B013C
:1019D000EA0190916107943061F58093E9008FEFFF
:1019E0009091E800815095FD06C095ED9A95F1F72C
:1019F00000008111F5CF8091E80085FF1AC00E9498
:101A0000A806811111C08091E80085FD06C0809173
:101A1000E8008E778093E800F2CFF80181918F0182
:101A20008093F100219779F78091E8008E77809379
:101A3000E800DF91CF911F910F91089543E050E0AE
:101A4000BC0184E00E94E30C0895CF93DF93EC0186
:101A500048E050E0BC0181E00E94E30C88E0FE0118
:101A6000A7E5B7E001900D928A95E1F7DF91CF915C
:101A70000895609155018091330580FF20C08091C9
:101A8000540143E0849FC00111248D5F9C4F539A01
:101A90002BB1277F3BB138605FB7F894FC01649F9E
:101AA000E00DF11D1124BF0168177907D1F45FBF64
:101AB0008FE594E00197F1F700C000000895809150
:101AC00056019091570123E0829FF0011124ED5FB0
:101AD000FC4F8917A0F61182108212828F5F339615
:101AE000F8CFFC014191CF01E8E03BB9000000C014
:101AF00047FF2BB9440F000000C000C000C02BB945
:101B000000C0EA9591F7D0CF0F931F93CF93DF9347
:101B1000EC0110E000E0909158019017110609F0D7
:101B20006CF40E94390D8C8190E0019681709927A8
:101B30008C83DF91CF911F910F91089520915601D1
:101B4000A801420F511D9A01220F331F240F351F88
:101B50002D5F3C4F4C816091350580913405969501
:101B60009017110651F04CF0442349F0409136058E
:101B70000E94A2080F5F1F4FCECF4423B9F340E06D
:101B8000F7CFB0E0A0E0E7ECFDE00C94F032EC0120
:101B90004C81042F10E09801D8010E948F349B01E2
:101BA000AC010E945A344B015C01E0E2F0E0E01B22
:101BB000F10BA5E5B0E0AC019B010E945A346B012A
:101BC0007C019F01DF010E945C339B01AC010E94FC
:101BD00065349B01AC01280D391D4A1D5B1DC701F1
:101BE000B6010E946D34F22E822F90E039E23F154B
:101BF00020F143E0249F9001112435952795122F61
:101C0000109500E085E5E82EEF188091580108173F
:101C100018F10E94390D9C8181E0992319F09032CE
:101C200019F48FEF8093530180915301890F8C83B6
:101C3000CDB7DEB7ECE00C940C3325E530E0B9010C
:101C4000681B790B9B01220F331F260F371F37FFAD
:101C5000D4CF2F5F3F4FD1CF8E2D01FD8F2D2091FF
:101C60005601622F600F7727771F9B01220F331FCA
:101C7000260F371F2D5F3C4F412F609135050E9485
:101C8000A2080F5FC2CFEF92FF920F931F93CF93E3
:101C9000DF93EC018C81811109C081E08C8310926B
:101CA000010392E09093520180935101809156017B
:101CB0009091570123E0829FF0011124ED5FFC4FCA
:101CC000891758F110E003E060915801161758F198
:101CD0000E94390D8091510120910103280F20931A
:101CE000010390915201980F90935201191654F4E8
:101CF000022E000C330B409158014150550B241714
:101D0000350734F0819580935101813009F41C82AC
:101D1000CDB7DEB7E6E00C94123311821082128246
:101D20008F5F3396CDCFE12EF12C70E0C7010E947A
:101D30003B3320915601820F482F50E02091010340
:101D4000022E000C330BE216F306BCF02091520178
:101D5000022E000C330B2E153F057CF0809F900166
:101D600011242D5F3C4F40913605609135058091DF
:101D700034050E94A2081F5FA7CFFA01EE0FFF1FD4
:101D8000E40FF51FED5FFC4F118210821282F3CF3A
:101D9000B0E0A0E0EEECFEE00C94F032EC018A81C1
:101DA000BB24BA9480FD02C0BB24B394A090580118
:101DB0008C81811109C081E0B81220C08FEF8A0D9B
:101DC0008093000381E08C83F12CE12C46E4942E77
:101DD000EA14B8F00E94390D8091000391E0B91225
:101DE00057C0811150C080915801815080930003E9
:101DF0001C82CDB7DEB7ECE00C940C3310920003DC
:101E0000E1CF009156010E0D1F2D111DC801880F45
:101E1000991F080F191F0D5F1C4FF80111821082C6
:101E2000128234E0C32ED12C812C80910003880DC6
:101E300087342CF1692D0E942D33892F082E000C38
:101E4000990B8E159F0591F4809136058C9DA0010C
:101E50008D9D500D112455954795559547959801A1
:101E600060913505809134050E94A2088B0CF1E049
:101E7000CF1AD108D1F68FEFE81AF80AA9CF87FF59
:101E8000DDCF8A0DDBCF815080930003BC82B1CFC0
:101E900090E001966091580170E00E943B3380937E
:101EA00000038C83A6CFEF92FF921F93CF93DF9313
:101EB000EC0110E0EE24EA94F12C60915801161721
:101EC00070F00E94390D9A818C8190FF27C08F5F3E
:101ED0008C83DF91CF911F91FF90EF900895209117
:101EE0005601422F410F5527551FCA019A01220F53
:101EF000331F280F391F2D5F3C4F70E0C7010E9430
:101F00003B33962F8C814091360560913505199FA2
:101F1000800D11240E94A2081F5FCFCF8150D8CF1F
:101F20009091330590FF0EC090915601209157017A
:101F300033E0939FF0011124ED5FFC4F921718F0EE
:101F40000E94390D08958183608342839F5F339699
:101F5000F5CFA3E0B0E0EFEAFFE00C94F8328C019B
:101F60008091020381110AC09E012F5F3F4F48E715
:101F70006FEF0E94A2088A8180930203F8016481B6
:101F8000613069F08091020340E0662361F040E037
:101F9000623011F44091020380E060E004C060917F
:101FA000020340E080E00E94900FF801848190E0FD
:101FB000019663E070E00E943B3384832396E4E063
:101FC0000C941433A3E0B0E0E8EEFFE00C94FA3296
:101FD0009091330590FF0AC09E012F5F3F4F0E94F2
:101FE000A2084B8169818A810E94900F2396E2E0CA
:101FF0000C941633CF93DF93EC01E3E3F5E04381D8
:1020000062818C810E94E20F8C818F5F8C83DF91D3
:10201000CF910895CF93DF93EC01EC81F0E0EC5E7B
:10202000FB4F4491E3E3F5E0628181810E94E20F7E
:102030008C818F5F8C83DF91CF910895E3E3F5E08E
:1020400080818E7F80830E948508EDEFF2E082819F
:10205000816082830E94390D0895B0E0A0E0E3E33F
:10206000F0E10C94F2327C015B016A0180919B02E9
:1020700001E010E08A3010F40AE010E0C1E0D0E0A6
:10208000B501C701F6010995811104C021960C170D
:102090001D072CF4CDB7DEB7EAE00C940E33CC9FCD
:1020A0009001CD9F300D300D112490E080E045E38C
:1020B0004A95F1F70000019682179307C1F7E0CF28
:1020C00080917102811110C08091D800806180934D
:1020D000D8008AE18A95F1F700C08091D90080FF8D
:1020E0000AC081E08093710281E090917102913089
:1020F00009F080E0089582E0809371020E948906D1
:1021000010926107F1CF0E946010882359F0E0918E
:102110004B07F0914C07309729F00190F081E02DAA
:102120000995089580E008950F931F930E94601011
:10213000882329F00E94F9071F910F9108950E94AA
:10214000F90700919C0210919D0220919E0230910E
:102150009F02600F711F821F931FEECFCF93DF93FB
:10216000C6E0D2E060E0CE010E9407342196C1159E
:1021700084E0D807B9F7DF91CF9108951F93CF93EB
:10218000DF93122F8430E0F46A30D0F44630C0F48C
:10219000C42FD0E0CC0FDD1F9CE0699FC00DD11D86
:1021A000112498E7899FC00DD11D1124632FCE0102
:1021B00086960E940734612FCE0187960E940734CD
:1021C000DF91CF911F910895AF92BF92CF92DF928E
:1021D000EF92FF921F93CF93DF9388E5C82E8AE09A
:1021E000D82ED0E07601C0E014C0F50125913491DD
:1021F000412F6C2F8D2F0E94BE1082E0A80EB11CC3
:102200001F5F163091F78CE0E80EF11CCF5FCA30EB
:1022100019F0570110E0E9CFDF5F88E7C80ED11C45
:10222000D43001F7DF91CF911F91FF90EF90DF90B5
:10223000CF90BF90AF900895CF93C82F6FEF8111CB
:1022400063E282E290E00E9407346FEFC11164E024
:1022500083E290E00E9407346FEFC11160E284E2F4
:1022600090E00E940734CF91089580E00E941C11F5
:1022700060E085E290E00E9407340E94E4100E9432
:10228000AE1081E00E941C1108950F931F93CF930D
:10229000DF93843030F56A3020F5463010F5C42FD6
:1022A000D0E0CC0FDD1F2CE0629FC00DD11D1124AA
:1022B00038E7839FC00DD11D1124CE0186960E9460
:1022C000F333082F10E0102F0027CE0187960E94CD
:1022D000F3339801282BC901DF91CF911F910F9102
:1022E000089590E080E0F8CF462F7A3040F46630D1
:1022F00030F4843020F4672F0E944511089590E057
:1023000080E00895CF92DF92FF920F931F93CF93B7
:10231000DF936C010091C70280916402082BC3E037
:10232000D0E010E0FC2EC8010C2E02C095958795D8
:102330000A94E2F780FD0CC02197A0F7F12C8F2DB5
:10234000DF91CF911F910F91FF90DF90CF90089573
:10235000B6018C2F0E9474110E94390A019761F313
:10236000EECFCF93DF93EC010E948211BE010E9459
:1023700074110E94390ADF91CF910895FC01838185
:102380009481892B29F08081918189238F3F51F499
:1023900080E00895843FE1F717C0883EA8F0813FB0
:1023A000B9F712C0808191810E94B11192959F70FE
:1023B000963099F358F4925F9F70923048F7803FBF
:1023C00019F040F7883E20F781E008959A5FF4CF36
:1023D00082E290E00E94F333833289F483E290E05A
:1023E0000E94F333843059F484E290E00E94F33386
:1023F00091E0803209F090E0892F8170089580E0AB
:10240000FCCF8091620290916102892B8093F4014C
:1024100090916302992391F0892B8093F40120E03D
:1024200086EF91E0FC013191CF0131112F5FF1E096
:102430008C3F9F07B9F721110E94680B48E050E0DC
:1024400069E572E084EF91E00E94DD33892BA9F009
:1024500088E0E4EFF1E0A9E5B2E001900D928A9501
:10246000E1F7E0914B07F0914C07309731F0028093
:10247000F381E02D84EF91E009950895882321F000
:102480000E946E0B0E9401120895882339F09091EA
:102490006202982B909362020E9401120895882391
:1024A00091F19CEF980F913A80F4E6EFF1E02CEF78
:1024B00031E09191891303C0DF0111971C922E170F
:1024C0003F07B9F70E940112089590E2980F9830E3
:1024D00050F4877091E001C0990F8A95EAF7892F2F
:1024E0000E946E0BEFCF9BE5980F933028F490E09D
:1024F00080E00E9444080895885A8B3120F490E0CF
:1025000080E00E941F080895CF93C82F8823B1F060
:102510008CEF8C0F813A00F5E6EFF1E08CEF91E063
:10252000DF012D91C21761F08A179B07D1F76C2F3D
:1025300084EF91E00E9405080E940112CF91089556
:102540002191C21303C0DF0111971C928E179F07C0
:10255000B9F70E940112EBCF80E28C0F883068F44B
:10256000C77021E030E001C0220FCA95EAF78091E0
:102570006202822B80936202DFCFEBE5EC0FE33047
:1025800040F4F0E0E65AFE4F808190E00E9444085B
:10259000D5CFC85ACB3190F6EC2FF0E0EE0FFF1FED
:1025A000E35AFE4F808191810E941F08C7CF1F937D
:1025B000CF93DF93182FCAE0D0E0893311F4C0E540
:1025C000D0E0812F0E9484128FE99FE00197F1F7FC
:1025D00000C000002197C1F7812F0E944F12DF91A8
:1025E000CF911F9108951F93CF93DF93162F8A30B9
:1025F00039F481E00E949613DF91CF911F910895E5
:102600008D3011F480E0F6CFC0914107D0914207A0
:1026100096E0FE01ABE3B7E001900D929A95E1F7E9
:10262000803E90F186E0FE0111928A95E9F7C09113
:102630004107D0914207111133C046E050E0BE017E
:102640008BE397E00E94DD339E012B533540892BAD
:1026500091F52A5F3F4F40913805642F70E0C90122
:102660000E94D632481B463010F4240F311D21152C
:1026700072E0370710F030E020E0255C3A4F3093ED
:10268000420720934107B8CFF6E08F9FB001112495
:102690006C5E7A4F46E050E0CE010E94C733C7CF50
:1026A0009E012A5F3F4FFE012E173F0731F28081C6
:1026B00080958193F9CFC90145E0969587954A9514
:1026C000E1F741E050E0BA0102C0660F771F8A953A
:1026D000E2F7CB016091390570913A05862B972B73
:1026E000B9016B5F7F4FE5E076956795EA95E1F775
:1026F00002C0440F551F6A95E2F7842B952B9093E7
:102700003A0580933905A5CF1F93CF93DF93EC0152
:10271000162FFE018491811104C0DF91CF911F918A
:102720000895612F0E94F3122196F3CFCF93382F93
:10273000E0914107F0914207EB53F54020913805B5
:10274000622F70E0CF010E94D632281B822F3323E4
:1027500069F066E00E942133C82FC15010F4CF9178
:10276000089560E080E20E94F312F7CF9F01280FE6
:10277000311D2115324018F080E0F0E0E0E08E0FCE
:102780009F2F911D855C9A4F90934207809341073C
:10279000E6CF10926202E6EFF1E086E0DF011D92E3
:1027A0008A95E9F790E080E00E94440890E080E09C
:1027B0000E941F08109261020E9401120895AAE26D
:1027C000B0E0E5EEF3E10C94F93283E697E0209176
:1027D000F100DC012D93CD01B7E08B369B07B9F7F3
:1027E00080916407833009F472C0B8F4813009F431
:1027F00049C0823009F4B3C08091E80083FF8BC2E6
:1028000080916307909164079A3008F084C2E92FA1
:10281000F0E0E056FB4C0C944F338A3009F48EC044
:102820008B3009F471C0893039F7809163078132A8
:1028300019F78091670790916807009711F0029748
:10284000D9F68091E800877F8093E8008091E800C6
:1028500082FF38C09091F3008091F200029731F42A
:102860008091F100813011F0863021F48091F100E7
:10287000809356078091E8008B778093E8000E9450
:10288000D906BACF80916307813A09F0B5CF80911C
:10289000E800877F8093E800809167079091680740
:1028A000892B61F468E087E597E070E00E94850776
:1028B0008091E8008B778093E8009ECF60E090E005
:1028C00080E0F3CF809161078111C0CF95CF8091D7
:1028D0006307813A09F090CF80916707909168076C
:1028E000892B09F089CF8091E800877F8093E800E9
:1028F0008091E80080FFFCCF809159018093F10026
:102900008091E8008E77B9CF80916307813209F01A
:1029100073CF8091670790916807892B09F06CCF7E
:102920008091E800877F8093E8000E94D90680911B
:102930006507809359010E94C9135ECF8091630798
:10294000813209F059CF8091E800877F8093E800B9
:102950000E94D90680916607809355074DCF8091DC
:102960006307813A09F048CF8091E800877F809320
:10297000E8008091E80080FFFCCF80915507BECF32
:10298000803899F0823809F0C6C1809167078F704E
:10299000873008F0C0C18093E9008091EB0085FB8F
:1029A000882780F91092E90006C080915F07909116
:1029B0006007911182609091E800977F9093E80002
:1029C0008093F1001092F1008091E8008E779FC112
:1029D000882309F48DC1823009F09DC1809165077B
:1029E000811190C1809167078F702FEF280F2630DB
:1029F00008F091C18093E9002091EB0020FF82C193
:102A0000933031F48091EB0080628093EB007AC1C7
:102A10009091EB0090619093EB0021E030E001C0D9
:102A2000220F8A95EAF72093EA001092EA0080913B
:102A3000EB008860EACF81116EC1109165071F77A6
:102A40008091E3008078812B8093E3008091E800FF
:102A5000877F8093E8000E94D9068091E80080FF7C
:102A6000FCCF8091E30080688093E30082E0111145
:102A700083E0809361074FC18058823008F04BC1DA
:102A800020916507309166072C3DE3E03E07A1F5F4
:102A900083E08A838AE289834FB7F894DE01139634
:102AA00020E03EE051E2E32FF0E050935700E49144
:102AB00020FF03C0E295EF703F5FEF708E2F90E034
:102AC000EA30C0F0C7968D939D932F5F243159F75C
:102AD0004FBF8091E800877F8093E8006AE270E052
:102AE000CE0101960E9485078091E8008B77809344
:102AF000E80011C1C096E7CF809167079091680701
:102B0000432F55274330510509F44AC078F5413029
:102B1000510509F47AC08BE590E0E8E3FCE042302F
:102B2000510509F0F8C02091E800277F2093E800C4
:102B30002091690730916A078217930708F49C0176
:102B400040E02115310509F065C0411163C0809155
:102B5000E80082FDC9CF80916107882329F2853082
:102B600019F28091E80083FFF2CFBECF41325105C8
:102B700009F43CC04232510509F0CDC083309105C3
:102B800008F0C9C0FC01EE0FFF1FEA51FE4F019093
:102B9000F081E02D8D519E4FDC018C9190E01AC0A8
:102BA000332721303105D1F02115310561F0223074
:102BB000310509F0B0C0E5EAFCE0E4918E2F90E029
:102BC000E5EAFCE007C0EFECFCE0E4918E2F90E03A
:102BD000EFECFCE0009709F49EC0A5CFE3EBFCE02E
:102BE000E4918E2F90E0E3EBFCE0F4CF833091058D
:102BF00008F091C0880F991FFC01E451FE4F01902D
:102C0000F081E02D89E090E08ECF82E190E0E3E971
:102C1000FCE089CF80916107882309F465CF853076
:102C200009F462CF8091E80083FD5ECF8091E800D7
:102C300082FD8DCF8091E80080FF83CF9091F300DB
:102C40008091F2002115310519F08830910550F07E
:102C500041E0089709F040E08091E8008E7780938A
:102C6000E8006FCF44914093F10031962150310933
:102C70000196E8CF803809F04EC08091E800877F48
:102C80008093E800809162078093F1009DCE8111CE
:102C900042C0109165071230F0F58091E800877FFF
:102CA0008093E800109362070E94D906112311F067
:102CB00084E005C08091E30087FDFACF81E0809336
:102CC000610742E061EC81E00E94F80642E261ECBB
:102CD00084E00E94F80642E261EC82E00E94F8067D
:102CE00042E260EC83E00E94F8068091610713C025
:102CF00080916507813079F481E0933009F080E0BC
:102D0000809360071092E9008091E800877F8093AC
:102D1000E8000E94D9068091E80083FF0AC08091F4
:102D2000E800877F8093E8008091EB0080628093C9
:102D3000EB00AA96E3E00C9415330E94C9132FEF21
:102D400084E39CE0215080409040E1F700C0000007
:102D500088E19AE00FB6F894A895809360000FBEC2
:102D600090936000FFCFB0E0A0E0E9EBF6E10C94B7
:102D7000EC32FC016280448081E08483E4E1F4E091
:102D80007490E3E9F4E0E491C0913605C695C1582A
:102D9000D0E0CC0FDD1FCD2FDD27812C75E0972EE5
:102DA000AA24AA94B12C55245A94E719EE2EF12C9A
:102DB00080915801881638F00E94390DCDB7DEB7E2
:102DC000E0E10C940833C82CD12C82E0861568F021
:102DD0009C9CF0019D9CF00D1124EB52FC4F8091C6
:102DE00034058083809135058183411023C09C9CEC
:102DF000F0019D9CF00D1124EB52FC4F13821282C6
:102E000020915601C601820F911D9C01220F331F94
:102E1000280F391F2D5F3C4F9C9CF0019D9CF00DAD
:102E20001124EB52FC4F4281618180810E94A208F3
:102E30008394BECF9C9C80019D9C100D11240B524D
:102E40001C4FF80183818823F1F081508383859D95
:102E5000C0011124648170E00E94D632FB01FF277B
:102E6000EC5EFB4F8491E82FE719E59DC00111242A
:102E7000B7010E94D63280913605689FB0011124B7
:102E8000F8017283BDCF0E94B733B5010E943B3376
:102E90008C179D070CF0B4CFF2E0F61598F40E9461
:102EA000B733B5010E943B33F80180830E94B733EA
:102EB000209135052695622F70E00E943B33280F44
:102EC000F80121839C9CF0019D9CF00D1124EB5294
:102ED000FC4F128280913605893C58F088EC9C9C0E
:102EE000F0019D9CF00D1124EB52FC4F84838383F1
:102EF00087CF8431A0F784E1F2CFCF92DF92EF92B7
:102F0000FF926B017C010E948C08B701A60188E04A
:102F100090E00E941934FF90EF90DF90CF900895D9
:102F2000A3E0B0E0E6E9F7E10C94F332082FD62EE7
:102F3000F42EC22E9091330590FF3CC020913405B1
:102F4000281308C080913505861304C0809136058A
:102F5000841729F08091FF0282608093FF02E92F9D
:102F6000E695AE2FB0E0A854BE4F8C918093FD0241
:102F70009E7F923019F59E012F5F3F4F4F2D6D2D93
:102F8000802F0E94A2084B8169818A810E94900F44
:102F900000933405D0923505F0923605CC2051F0DF
:102FA0006091330570913405809135059091360517
:102FB0000E947D172396E9E00C940F33823019F4B8
:102FC000F0903605E5CF8630A1F1893091F1893155
:102FD000F9F6E9516E2F6170B62EE695F0E0E15FEB
:102FE000FB4F1491E12C60915801E61618F00E94F5
:102FF000390DCECFE19EC001112470E00E94D6327F
:10300000802FB11014C0860F20915601622F6E0DD3
:103010007727771F9B01220F331F260F371F2D5F46
:103020003C4F4F2D6D2D0E94A208E394DCCF861BF0
:10303000EBCF022FADCFE3E3F5E0438121E1421B6B
:1030400008F440E021E0628181810E949017089598
:10305000E3E3F5E0438121E1420F08F44FEF21E083
:10306000628181810E9490170895E3E3F5E0628117
:1030700021E1621B08F460E021E0438181810E942C
:1030800090170895E3E3F5E0628121E1620F08F40F
:103090006FEF21E0438181810E9490170895E3E35F
:1030A000F5E0818121E0438162818A500E9490177E
:1030B0000895E3E3F5E0818121E043816281865F49
:1030C0000E949017089580913705882319F0815048
:1030D00080933705609133057091340580913505F3
:1030E000909136050E947D170895809137058330B1
:1030F00018F48F5F80933705609133057091340524
:1031000080913505909136050E947D170895E3E37F
:10311000F5E083E0808311828FEF828388E78383E9
:103120001482ADEFB2E012968C91129783601296E2
:103130008C9360817181828193810E947D170895B3
:1031400067EE7EEF90E080E00E94253460E082E050
:1031500090E00E94073460E083E090E00E94073432
:103160001092640260E074E184E090E00E942534F3
:1031700060E086E090E00E9407346FEF87E090E027
:103180000E94073440E050E0BA0188E090E00E94DD
:10319000193460E08DE090E00E94073440E050E098
:1031A000BA0188E190E00E94193460E087E190E084
:1031B0000E94073440E050E0BA018CE190E00E94A8
:1031C000193470E060E080E290E00E94253440E035
:1031D00050E0BA0188E190E00E94193480E00E943A
:1031E0001C110E94351140E050E0BA018FE090E0E0
:1031F0000E94193440E050E0BA0183E190E00E945F
:10320000193408959091AF0292FB222720F92817D4
:1032100079F080FB92F99093AF026091AE027091C9
:10322000AF0284E090E00E94253482E00E943A0CD4
:10323000089590E080E00E940134873E9E4F19F48B
:103240000E94E811089580E00895A8E0B0E0EBE264
:10325000F9E10C94FA3285E0E3E3F5E0DE01119642
:1032600001900D928A95E1F78091FD029091FE0206
:10327000A091FF028E839F83A887288540919702A3
:10328000509198026091990270919A023FB7F89418
:103290008091500790915107A0915207B091530728
:1032A0003FBF841B950BA60BB70B84369105A10578
:1032B000B10510F4222319F180912D0190912E0176
:1032C0008D579D4F40912C0150E04930510510F031
:1032D00048E050E0BE016F5F7F4F0E94EA3385E017
:1032E00090E00E946032882369F00E94F9076093A1
:1032F0009702709398028093990290939A02109289
:10330000FF0281E02896E2E00C941633A4E0B0E0DE
:10331000ECE8F9E10C94F93240917F02509180027F
:1033200060918102709182022FB7F89480915007CA
:1033300090915107A0915207B09153072FBF841B62
:10334000950BA60BB70B11E084369105A105B105CD
:1033500070F10E9494106E5F7F4F8F4F9F4F698373
:103360007A838B839C8380912501909126018D57D0
:103370009D4F4091240150E04530510510F044E04C
:1033800050E0BE016F5F7F4F0E94EA3384E090E01F
:103390000E946032182F882351F00E94F907609331
:1033A0007F02709380028093810290938202812F2A
:1033B0002496E3E00C9415334F925F927F928F92A4
:1033C0009F92AF92BF92CF92DF92EF92FF920F93B4
:1033D0001F93CF93DF930F92CDB7DEB7C62E4A016E
:1033E0005901482E880F5508C2010E946032782E7C
:1033F000882309F480C0C20133E0880F991F3A95F1
:10340000E1F7FC01EC5FFE4F438150E041155105AF
:1034100011F041E050E08C5F9E4FFC0164817581AA
:103420006D577D4FCE0101960E94EA33F401408131
:103430005181628173812FB7F894809150079091E8
:103440005107A0915207B09153072FBF841B950BD2
:10345000A60BB70B84369105A105B10540F4B70161
:10346000C8010E9469089981891709F444C00C2C8D
:10347000000CDD08C6010E946032782E811113C055
:10348000712C872D0F90DF91CF911F910F91FF909D
:10349000EF90DF90CF90BF90AF909F908F907F90F4
:1034A0005F904F900895C60123E0880F991F2A95D9
:1034B000E1F7FC01EC5FFE4F438150E0E416F506B6
:1034C00008F4A7018C5F9E4FFC01648175816D57E4
:1034D0007D4FC5010E94EA33B701C8010E94690807
:1034E00099818913CDCF0E94F907F401608371831C
:1034F00082839383C6CFA701B801C5010E94EA3336
:10350000C0CFA1E0B0E0E7E8FAE10C94F332EE249A
:10351000E394F12C0AE812E09E012F5F3F4F4BE746
:1035200052E063E082E00E94DC19C82E882339F162
:10353000D12C80E01DC00091A1020D0D202F30E0A4
:10354000A90141545D4F7A01E1E0F0E0EC0FFD1F6D
:10355000ED0DF11D1081FA019081191BB12E1B1484
:103560009CF0912F17FD90E0191B11111CC0D394F2
:103570009091A002D916F8F281110E94650B8C2D52
:103580002196E9E00C940F33BA94F70180818F5FA4
:1035900080838AEA002319F0013019F48BE40E9439
:1035A000D7128C2DDCCF1F5FF70180818150808383
:1035B00089EA002319F0013019F48EE40E94D71231
:1035C0008C2DD3CFA5E0B0E0E8EEFAE10C94F43214
:1035D0006B0185E0E82EF12C04E812E09E012F5FDC
:1035E0003F4F47E752E061E080E00E94DC1988230A
:1035F00049F095E0FE013196A2E7B2E001900D920C
:103600009A95E1F795E0E2E7F2E0D60101900D929C
:103610009A95E1F72596E8E00C9410331F920F92EB
:103620000FB60F9211242F933F934F935F936F9395
:103630007F938F939F93AF93BF93CF93DF93EF933A
:10364000FF93D091E900DF708091EC00C82FC1702A
:1036500080FDC0E81092E9008091F000877F8093A0
:10366000F00078940E94DF131092E9008091F0003E
:1036700088608093F000CD2BCF70C093E900FF915C
:10368000EF91DF91CF91BF91AF919F918F917F91FA
:103690006F915F914F913F912F910F900FBE0F90BF
:1036A0001F9018951F920F920FB60F9211242F930F
:1036B0003F934F935F936F937F938F939F93AF93BA
:1036C000BF93EF93FF938091E10082FF09C0809147
:1036D000E20082FF05C08091E1008B7F8093E100D2
:1036E0008091DA0080FF24C08091D80080FF20C044
:1036F0008091DA008E7F8093DA008091D90080FF7C
:103700009DC080E189BD82E189BD09B400FEFDCF85
:1037100081E08093610780915407811109C00E9464
:1037200089060E942A078091E20084608093E2006B
:103730008091E10080FF17C08091E20080FF13C0FC
:103740008091E2008E7F8093E2008091E2008061B0
:103750008093E2008091D80080628093D80019BCE9
:1037600085E0809361078091E10084FF2BC0809108
:10377000E20084FF27C080E189BD82E189BD89B56F
:10378000982F917080FFFBCF8091D8008F7D809320
:10379000D8008091E1008F7E8093E1008091E2006B
:1037A0008F7E8093E2008091E20081608093E2004E
:1037B00080916207882309F447C084E08093610701
:1037C000809161078091E10083FF27C08091E20032
:1037D00083FF23C08091E100877F8093E10082E036
:1037E00080936107109262078091E1008E7F809341
:1037F000E1008091E2008E7F8093E2008091E20000
:1038000080618093E20042E060E080E00E94F80680
:103810008091F00088608093F000FF91EF91BF915C
:10382000AF919F918F917F916F915F914F913F9158
:103830002F910F900FBE0F901F90189519BC1092EA
:1038400061071092540774CF8091E30087FD93E0E5
:1038500090936107B5CF78941F921FB61F921124E1
:103860008F939F93AF93BF9380915007909151078F
:10387000A0915207B09153070196A11DB11D8093ED
:10388000500790935107A0935207B0935307BF91ED
:10389000AF919F918F911F901FBE1F9018959C0113
:1038A0004FB7F8948091500790915107A09152071B
:1038B000B09153074FBF821B930B08952FB7F89415
:1038C0008091500790915107A0915207B0915307F2
:1038D0002FBF08950F931F93CF93DF93C62FD42F3D
:1038E000022FFC0182818823A9F060936D070E945A
:1038F0005E1C90936C0780936B07C77081E001C0DA
:10390000880FCA95EAF70E944512DF91CF911F9167
:103910000F91089580916D07681332C080916B07F5
:1039200090916C070E944F1C8436910548F510E277
:103930001D0FCD17B9F080E28C0F883040F4C770AE
:1039400081E001C0880FCA95EAF70E943E12183044
:1039500048F481E09D2F977001C0880F9A95EAF78F
:103960000E944512802F0E94D712183070F6D7702F
:1039700081E001C0880FDA95EAF70E943E12C5CFB8
:10398000C77081E001C0880FCA95EAF7F6CF0E94A0
:103990006010882319F00E945E1C08950E94941004
:1039A000CB01089560913305669570E04BE050E0DF
:1039B00086E491E00E94D033892B19F481E0809352
:1039C000FE020E94C71C9093F8028093F702809138
:1039D000FF0284608093FF0208959091330590FF69
:1039E00031C0917081112FC0926090933305809106
:1039F000FF0281608093FF02662351F060913305DE
:103A00007091340580913505909136050E947D179F
:103A100060913305669570E04BE050E086E491E0FC
:103A20000E94D033892BB1F00E94850881E08093F9
:103A3000FA0220E040913605609135058091340509
:103A40000E94901708958B3210F09465CECF880FA6
:103A5000982BCBCF0E94D21CE9CF8091330586955D
:103A6000815009F48AE261E00E94ED1C0895809182
:103A7000330586958F5F8B3208F081E061E00E940C
:103A8000ED1C08959091330590FF08C09695981706
:103A900028F0961718F40E94371D089561E00E94DF
:103AA000ED1C0895A8E0B0E0E8E5FDE10C94EC32EF
:103AB0008C01DC0113968D919C911497892B39F020
:103AC0008C9111969C9189238F3F09F0FFC5289610
:103AD000E0E10C9408330E948211F82E682F89814E
:103AE0009A810E94D30B69817A818F2D0E94741173
:103AF0007C01F8018281882309F451C1C7019757DD
:103B00008038910508F041C6FFE0FE1508F49AC020
:103B10008FEF93E00E94F333811194C066E0A62EEC
:103B200062E0B62EE11058C0FE01339686E0DF0158
:103B30001D928A95E9F75AE0452E7501BFEFEB1A01
:103B4000FB0AC5010E94F33389831A82882309F492
:103B500079C0813009F089C06501E2E0CE0ED11C48
:103B6000C7010E94F3338A83882309F46BC09FEF57
:103B7000980F933008F03EC0F3E0AF0EB11CC601C1
:103B80000E94F3338B83882309F45CC01C82DE011E
:103B900011967D01F7012081222379F2213009F06D
:103BA000A7C08181813009F062C06701F2E0CF0EC9
:103BB000D11CD70112968C910E94D7127601EFEF9B
:103BC000EE1AFE0A8BE0815029F3AFE9BFE01197AE
:103BD000F1F700C00000F7CFA11424E0B20691F184
:103BE000C5010E94F333811101C0EA943FEFA31A8B
:103BF000B30A98CF5601843051F642E0E42EF12CFE
:103C000056012FEFA21AB20AC6010E94F333E1E077
:103C1000F0E0EC0FFD1FEE0DFF1D8083882391F077
:103C20008C3741F4E2E0F0E0EC0FFD1FEE0DFF1DDC
:103C30001082ADCF3FEFE31AF30A650187E0E81683
:103C4000F104F1F680915802877009F440CFD80151
:103C500012968C91882309F43ACF8091AF0282FFAB
:103C600036CF82E00E943A0C32CF570190CF82309B
:103C700041F46701B2E0CB0ED11C82810E94841214
:103C80009DCF833051F46701F2E0CF0ED11CD701F4
:103C900012968C910E944F1291CF843021F0BFEF89
:103CA000EB1AFB0A8CCF2281C70102967C0190E0BF
:103CB00080E0A7014F5F5F4F2053330B2A3031055F
:103CC00050F0019708F47BCFEFE9FFE03197F1F76F
:103CD00000C00000F6CF489EB001499E700D11242F
:103CE000C901860F971FD70111962C917A01E1CF58
:103CF000E22FF0E0E851FE4F5490822F8695869592
:103D0000869590E0FC01E852FE4F64902770712C7C
:103D1000022E02C0759467940A94E2F731E06322A0
:103D20007724FC01E853FE4F8490912C022E02C0B0
:103D3000959487940A94E2F7A1E08A229924FC01E1
:103D4000E854FE4FC490D12C02C0D594C7942A9554
:103D5000E2F7B1E0CB22DD246114710419F081EEA9
:103D60000E9484128114910419F086EE0E9484123C
:103D7000852D0E94D7128114910419F086EE0E94BD
:103D80004F126114710419F081EE0E944F12C11498
:103D9000D10409F414CF8CE20E94D71210CFF7019E
:103DA000E851FC47E730F10508F0D6C4E655FB4C76
:103DB0000C944F3326E241EE61EEC8010E946A1C6A
:103DC00041CF27E245EE65EEF8CF26E241EE60EE08
:103DD000F4CF27E245EE64EEF0CF26E241EE62EE4C
:103DE000ECCF27E245EE66EEE8CF28E241E0EBCFEC
:103DF0008091AE0281608093AE0295C08091AF0247
:103E000088608093AF028FC08091AE028260F3CF52
:103E10008091AE028460EFCF8091AE028860EBCFDC
:103E20008091AF028160EDCF8091AF028260E9CFD7
:103E30008091AE028061DFCF8091AE028062DBCFE5
:103E40008091AE028064D7CF0E94C9138091AE02E8
:103E50008068D1CF8091AE028C60CDCF8091AF02CF
:103E60008360CFCF8091AE028E7FC5CF8091AF02AD
:103E7000877FC7CF8091AE028D7FBDCF8091AE028C
:103E80008B7FB9CF8091AE02877FB5CF8091AF0293
:103E90008E7FB7CF8091AF028D7FB3CF8091AE027E
:103EA0008F7EA9CF8091AE028F7DA5CF8091AE028B
:103EB0008F7BA1CF0E94C9138091AE028F779BCFD9
:103EC0008091AE02837F97CF8091AF028C7F99CF94
:103ED0008091AE0282FB992790F921E0922790FB16
:103EE00082F990FB83F987CF8091AF02982F90954C
:103EF00091708E7F892B90FB81F983CF9091AE02D8
:103F0000892F8F7B96FF806476CF0E94C913909192
:103F1000AE02892F97FB87F980586DCF61E08EE064
:103F200090E00E9407346091AE027091AF0284E08D
:103F300090E00E9425340E94C91384CE60E0EFCF48
:103F40009091AE02892F8F7E94FF806154CF909123
:103F5000AE02892F8E7F90FF81604DCF9091AF028E
:103F6000892F877F93FF88604CCF85E300C4B7E734
:103F7000EB16BCE7FB0609F0BBC381E00E94560CC0
:103F800043E062E081E00E940D0C5CCE8091620211
:103F90008272F701E052F847E531F10508F07BC085
:103FA000EF54FB4C0C944F338091330580FF17C0C6
:103FB0008E7F809333056091330570913405809135
:103FC0003505909136050E947D170E9485088091E5
:103FD000FF0281608093FF020E94390D33CE816021
:103FE0008093330561E086950E94ED1C2BCE4DE257
:103FF0005DE167E37DE10E947F0824CE47E35DE158
:104000006DE27DE1F8CF4FE458E169E578E1F3CF67
:1040100049E558E16FE478E1EECF45E358E162E429
:1040200078E1E9CF42E458E165E378E1E4CF4BE1A0
:1040300058E168E278E1DFCF48E258E16BE178E1EE
:10404000DACF43E658E165E778E1D5CF45E758E1B7
:1040500063E678E1D0CF61E081E0C6CF65E082E041
:104060000E94421DEFCD68E086E0FACF6EE089E065
:10407000F7CF64E18FE0F4CF67E185E1F1CF61E054
:1040800088E1B2CF62E289E1EBCF61E083E2ACCFBD
:104090006AE285E2E5CFE7E7EE16ECE7FE0609F413
:1040A0005DC0F8E7EF16FCE7FF0609F45BC0F80116
:1040B0008281E080F180882309F488C0C7010E94D2
:1040C0008211D82E682FC7010E94D30BB7018D2D06
:1040D0000E9474110E94390AF82ED92EA82ED801F8
:1040E0001296EC9012971596BC90B2943FE0B322D2
:1040F00080915802877019F19E2CEE2009F1892FCA
:10410000807F803479F09F2D20E22F0D2830B8F089
:10411000B11004C02D2D207E203289F0803611F49C
:10412000963F69F08091AF0282FF09C082E00E9451
:104130003A0C809158028770992493948111912CA4
:104140008D2C82942FE08222BBE0B81508F4ADC01C
:10415000E82DF0E0EA53FB4C0C944F3381E00E94D1
:104160002D0C0ECF82E0FBCFABE5EA16ACE7FA06EA
:1041700059F1BCE5EB16BCE7FB06E1F0EAE5EE160B
:10418000ECE7FE0609F093CF81E01BC00E94C91343
:10419000FFEF24E33CE0F15020403040E1F700C065
:1041A00000000E94E8076FEF7FEF90E080E00E9440
:1041B0002534B8C28091AF0282FB882780F991E054
:1041C00089270E94021973CF80E0FBCFC7010E94AC
:1041D0009F0BD82E7BCFED2DEF70CE2E8D2D807FB7
:1041E00019F0C29490EFC922EE20B9F0CC2069F00A
:1041F00080E28F0D883010F0A11009C0809162021A
:10420000C82AC09262020E9401128F2D4CC0809178
:104210006102C82AC0926102F6CF8F2D0E944F1210
:10422000CC2009F442C080E28F0D883010F0A1103C
:1042300004C08C2D0E946E0B06C0C0948091610258
:10424000C822C09261020E9401122FC0FD2DFF7092
:10425000CF2E8D2D807F803219F0C29480EFC8223E
:10426000AA2089F021E0A21609F47FC0EE2009F40B
:1042700089C0BB2009F47FC0F801858180FFC5CFCC
:104280008F70858378C02091AF0222FD46C0EE205A
:10429000F1F1CC2039F080916202C82AC09262020A
:1042A0000E94011280E00E948412E82DE850FF0B6A
:1042B000349710F40E948310EE2079F08D2D807FCA
:1042C000803619F4F6EFAF1641F080910502823086
:1042D00009F0F4C183E080930502992009F4F7CB3B
:1042E0008091580280FDF3CBD80112961C928595DF
:1042F000859585950E94560CC8010E94521D80919B
:1043000058028595859585950E942D0CE0CB80E01F
:104310000E944F12CC2049F28CCFEE20A1F0909158
:1043200063028C2D892BB11003C00E944512BDCFB2
:1043300031E0B312FACF22FFB8CF891709F4B5CF15
:1043400080936302B2CFB11006C00E94680B8C2D1F
:104350000E943E12AACF81E0B81609F4A6CF8C2D98
:104360000E943E120E94680BA0CFEE2031F095E033
:104370009B1508F49ACF8C2DD8CFA4E0AB1508F488
:1043800094CFE5CFBB2019F3F9E3AF1220C12FEF93
:1043900037EE83E0215030408040E1F700C000005C
:1043A0008F2D0E944F1281CF8D2D8695869583701B
:1043B00069F0813009F079CF8F2D9D2D9370E11038
:1043C00002C080E090E00E941F086FCF8F2D9D2DCE
:1043D0009370E11002C080E090E00E94440865CF35
:1043E0008D2D837091F5E11060CF4F2D429546954C
:1043F0004770440F440F8F2D8F70042E01C0880F1B
:104400000A94EAF72F2D2071F4FE07C02FE030E068
:1044100001C0220F4A95EAF720953D2D3695369535
:104420003370323069F050F440916402313029F039
:10443000822B84230E94620C38CF842B822BFACFEC
:10444000282B809164028227F5CF8695EE2011F00B
:104450008D2D8170882309F428CF4F2D42954695E4
:104460004770440F440F8F2D8F70042E01C0880FAA
:104470000A94EAF72F2D2071F4FE07C02FE030E0F8
:1044800001C0220F4A95EAF720953D2D36953695C5
:104490003370323069F050F44091C702313029F066
:1044A000822B84230E940A0C00CF842B822BFACF0C
:1044B000282B8091C7028227F5CFBD2DBF70CB2E50
:1044C000EE2029F08B2F0E94560C8F2D2ECF8F2D92
:1044D0000E943E128C2D0E942D0CE7CE8F2DE2EF14
:1044E000AE16B1F1EA1570F0F0EFAF16D1F021EF92
:1044F000A21691F0EE2009F45EC0B11086CE8D2D8B
:104500008F712AC033EFA31651F194EFA912F2CFA5
:104510008091AF0282FD2FC08D2D8F71EE20D9F2D8
:104520001BC0EE2081F0A4E0AB1508F4BECE2D2D0B
:104530002F7181E090E001C0880F2A95EAF79091F1
:10454000C7028927AFCFB5E0BB1508F4AECEEFCFD9
:104550008D2D8F71E110BFCF0E94560CA6CE80E04A
:10456000EE2009F49FCF81E09D2D9F7101C0880F3F
:104570009A95EAF797CFEE2099F0ED2DEF71FE2E88
:104580008E2F0E94560C8091AF0282FF07C0F8E088
:10459000FF9EC00111248360809358028F2DDCCFD1
:1045A00081E00E943A0C21E02B1508F07ECE82E0DB
:1045B0000E943A0C7ACEBB2079F0893341F43FEF68
:1045C00087EE93E0315080409040E1F7E7CEAFE3D3
:1045D000BCE91197F1F7E2CE8D2D8F717CCFE0E130
:1045E000EF0DE73008F03FC0F0E0EE52FB4C0C94CA
:1045F0004F33EE2009F459CE80911F0291E08927B4
:1046000080931F0252CEE0921F024FCE81E08E2592
:10461000F7CFE1104ACE81E0F3CFE11046CE109201
:104620001F0243CEEE2021F082E080930502F3CFFB
:1046300080910502823021F481E08093050235CE1D
:10464000833009F032CE10920502E9CFEE2039F026
:1046500080911E02882381F210921E0226CEB4E0C1
:10466000BB1550F622CE80911E02BB20D9F08823C4
:1046700041F080911F0291E0892780931F021092E0
:104680001E02E110C2CDEFE3FCE93197F1F700C063
:1046900000008F2D0E944F1286E0D8011D928A954E
:1046A000E9F703CE882309F400CEE110FECD809116
:1046B0001F0291E0892780931F02CECF813009F03D
:1046C0000CCE1092050210921F0207CE85E0F80171
:1046D000DE01119601900D928A95E1F7F801228191
:1046E00089819A812111F7C90E949F0BF82EFBC97D
:1046F00082E0F8E7EF16FCE7FF0609F43FCC23E081
:10470000E2162CE7F20609F44ECD08F02DCDE114A7
:104710008CE7F80609F43ACD91E0E9169CE7F90632
:1047200009F0C5CC0E949D1626E1E2162CE7F206A0
:1047300009F01DCC809162028A7A91E009F490E040
:104740009093040269E2811165E384EF91E00E9495
:1047500005080E94011276CA36E1E3163CE7F3062B
:1047600009F014CC809104028111FFCB89E2E6EFBD
:10477000F1E02CEF31E09191891303C0DF01119733
:104780001C922E173F07B9F7E4CFF701E851FC4719
:10479000E730F10508F40ACB10926D07C701905776
:1047A000839708F0C1CF84E090E00E940134909399
:1047B000AF028093AE02F701E150F047E232F1051B
:1047C00008F016CBE752FB4C0C944F331F93CF935A
:1047D000DF9380912502807F09F04BC080912202F7
:1047E000882309F446C080915702C0912602409167
:1047F0002002509121026091230270912402D42F53
:10480000D52316E0C817A9F190E061157105A9F14B
:10481000DF3F99F1189FF001199FF00D1124DF017E
:10482000A95DBD4F11962C911197251326C02C918F
:10483000241323C012962C91129721111EC0139697
:104840002D913C91261B370B24363105B0F4809115
:1048500025028F70806180932502E45DFD4F808189
:104860008F708061808380E292E00E94521D0E94DE
:10487000950BDF91CF911F91089501968770C2CF5C
:10488000A1E1B0E0E6E4F4E20C94F0328C0185E0C2
:10489000F801DE011D9601900D928A95E1F7F8016D
:1048A000E28080E2882E82E0982E4091230250918F
:1048B00024024115510509F430C190912002209144
:1048C0002102892F82238F3F09F427C1D080C18024
:1048D000A380B480F0902202B501641B750BFF2009
:1048E00009F4E7C080912502382F307F64367105C6
:1048F00008F0ABC0311178C0FE2C2C1114C09D11F2
:1049000012C0E11010C08F70806180932502C40135
:104910000E94521D80912502F80185838F2D61969A
:10492000ECE00C940C33A114B104C9F18D2D8C2151
:104930008F3FA9F181E08E2580FF05C04E2D6C2DA3
:104940008D2D0E94750BA114B10459F18D2D8C2170
:104950008F3F39F181E08E25F82FF170BF2E80FF57
:1049600039C04E2D6C2D8D2D0E94750BA82E8111F6
:1049700031C0DD86CE868D859E850E94B111292F9E
:1049800022952F70243078F49F702230A8F099235C
:10499000B9F0F8019581907F99F4FA2CBFCF80E0AF
:1049A000CBCF80E0D9CF2A5F2F70223068F0C801CA
:1049B0000E94521DAB2CF1CF992311F0882369F38B
:1049C000805E883050F3F3CF803F38F3815F8330CF
:1049D00070F7E3CFEE2009F4A1CF8091250281602A
:1049E00080932502F12C9ACF2C1105C09D1103C094
:1049F000EE2009F477C0C8010E94BE11882309F196
:104A0000EE20F9F080912502803270F02091200292
:104A10003091210238872F831986BB86AA868C871E
:104A2000CE0107960E94521D86E0F801A0E2B2E096
:104A300001900D928A95E1F70E94E623FF24F394FA
:104A40006DCFC8010E94521DF9CF31110AC080E21A
:104A500092E00E94521D86E0F40111928A95E9F7D6
:104A6000C1CF2C110EC09D110CC0E1100AC085836E
:104A7000C8010E94521D86E0F40111928A95E9F75F
:104A80004DCFC8010E94BE118823D9F2EE20C9F291
:104A900080912502803240F2209120023091210243
:104AA0003A8329831B82BD82AC828E83CE0101961C
:104AB000B9CF64367105F8F6FE2CEE2011F22C11F8
:104AC0001EC09D111CC08091250280FD0FC0982F33
:104AD000907F61F08583903F31F0982F907F905FB9
:104AE0008F70892B8583C8010E94521D86E0F801D2
:104AF000A0E2B2E001900D928A95E1F70FCFC801D4
:104B00000E94BE11811190CF809125028160809317
:104B10002502C8010E94521D01CFEE2009F491CF59
:104B2000C8010E94BE11F82E882309F48ACF86E0BE
:104B3000F801A0E2B2E001900D928A95E1F7809130
:104B40002002909121020E94B11192959F7096309F
:104B500051F4863F41F080911F0291E089278093B4
:104B60001F0290931E020E94E623D8CEA7E1B0E078
:104B7000ECEBF5E20C94F8326D8B7E8B8F8B252F4E
:104B80006111109261028E899F89892BC1F1822F58
:104B900084238F3FA1F12A3090F5463080F5E42F31
:104BA000F0E086E0289FE00DF11D1124DF01A770E1
:104BB000BB2701E010E001C0000FAA95EAF7DF0172
:104BC00093E0B695A7959A95E1F7A450BE4F9C91B6
:104BD00080911F02611102C0892F8023882309F46C
:104BE0003EC0AF01440F551FFA01EF5BFE4F249109
:104BF000405C5E4FFA014491892F802B8C931A8A76
:104C0000198A4B8B2C8B85E0FE017396DE011D9675
:104C100001900D928A95E1F786E0FE013D96DE0156
:104C2000179601900D928A95E1F7CE0107960E94A2
:104C30004024811112C086E0FE013796DE011196F4
:104C400001900D928A95E1F78A859B85892B29F041
:104C50008F81988589238F3FA1F516E028C0802F8A
:104C600080958923CBCF96E0929FD001939FB00D82
:104C70001124A95DBD4FFE01319601900D929A95C8
:104C8000E1F7809326020E94950BE7CF819FC00138
:104C90001124895D9D4F0E944024882371F08091EA
:104CA000570290E001968770992780935702809170
:104CB0005702909126028913E9CF6796E4E00C949D
:104CC00014332091260230E0C9010196877099279C
:104CD000409157024817190631F60E94C9131092E5
:104CE00026021092570286E0E0E2F2E0DF011D9218
:104CF0008A95E9F7B2CFA2E1B0E0E1E8F6E20C94E0
:104D0000EF328E010F5F1F4F8AE0D8011D928A9506
:104D1000E9F785E9C82E81E0D82EF12CE12CAA24F0
:104D2000A394B12C20EA822E21E0922EF6018191EB
:104D30006F018F3F09F442C0F894E82FE295EF70BD
:104D4000F0E021A18F70A50102C0440F551F8A9584
:104D5000E2F7CA01922F982B91A392A18095892303
:104D600082A3789400C0EAE9F1E0712C31E021914E
:104D70002F3F09F46BC0A22FA295AF70B0E09096C0
:104D80008C9190E02F7002C0959587952A95E2F757
:104D900080FD5CC0832F782A330F8E169F0639F76B
:104DA000F601319780818F3F11F00E943D0950EA52
:104DB0005A95F1F7F801EE0DFF1D70828FEFE81A9A
:104DC000F80A95E0E916F10409F0B0CF4AE050E0A6
:104DD000B80182EA92E00E94DD33009741F02AE0B8
:104DE000F801A2EAB2E001900D922A95E1F7009154
:104DF000AD02892B69F181E0809369020E945E1CFB
:104E00009093680280936702809167029091680294
:104E10000E944F1C059700F110E003511D4F45E023
:104E200050E062EA72E0C8010E94DD33D12C892B88
:104E300051F085E0E2EAF2E0D80101900D928A9506
:104E4000E1F7DD24D3941092690207C080E0A3CF7C
:104E5000809169028111D8CFD12C0E946010C82E98
:104E6000E091AD02DE011B967D01882309F47AC032
:104E700085E01D928A95E9F70E2F10E003511D4F32
:104E800080919B028A30D8F542EE5AE1B701C80101
:104E90000E942D10882309F454C041E85AE1B7015B
:104EA000C8010E942D10882309F44BC046E859E13F
:104EB000B701C8010E942D10882309F442C045E2C1
:104EC00059E1B701C8010E942D108823D1F1109239
:104ED0009B028091AC0290E045E050E0B701835125
:104EE0009D4F0E94DD3321E020937002892BE1F475
:104EF000C12C8C2D8D296296EDE00C940B338091A2
:104F00006A0290916B020E944F1C843F914008F00E
:104F1000BBCF80917002882359F385E0F70111928D
:104F20008A95E9F710927002A091AC02B0E0A3510B
:104F3000BD4F85E0FE013B9601900D928A95E1F709
:104F4000D8CF80919B028F3F31F08F5F80939B027F
:104F50008A3008F4BECF0E945E1C90936B0280934F
:104F60006A02D7CFF0E0E351FD4F85E0A4E8B2E05C
:104F700001900D928A95E1F765E070E084E892E097
:104F80000E946908809383024091C40250E06091BE
:104F9000C30270E061547D4FC7010E94EA338B85E4
:104FA00080938A0261E070E0C7010E9469088093E3
:104FB000890280908B0290908C02A0908D02B0901C
:104FC0008E0280916C0290916D02A0916E02B09160
:104FD0006F0288169906AA06BB06D1F080926C0271
:104FE00090926D02A0926E02B0926F020E946010C9
:104FF00081110EC00E94F907861A970AA80AB90AF9
:1050000080929C0290929D02A0929E02B0929F027A
:1050100088E0EFE8F2E0DE011B9601900D928A95A0
:10502000E1F780918F028695F0909002E0909102D6
:10503000B090920200919502109196021092960201
:10504000112309F456CF10FF0BC09B8590FF1CC0A5
:105050009091330591609093330560E00E94ED1CC0
:1050600011FF06C020E04B2D6E2D8F2D0E94901752
:1050700012FF04C0002359F00E94D21C13FF39CF45
:1050800081E08093FA0235CF0E941E10E9CF0E9482
:105090008508F4CFA5E0B0E0E0E5F8E20C94F83242
:1050A0000E945E1C8C0180916502909166028017BF
:1050B0009107A1F08FEF89838A831B820E945E1C77
:1050C0008160782F9D838C8349815A816B818D818A
:1050D0000E94B62510936602009365022596E4E0CF
:1050E0000C9414331F921FB61F9211248F939F9319
:1050F000AF93BF9380914F07811113C080915007E8
:1051000090915107A0915207B09153074196A11D6C
:10511000B11D8093500790935107A0935207B0930D
:105120005307BF91AF919F918F911F901FBE1F900A
:105130001895CDB7DEB7A7970FB6F894DEBF0FBEB0
:10514000CDBF85B7806885BF85B7806885BF84B7C8
:10515000877F84BF0FB6F894A8958091600088611E
:1051600080936000109260000FBE80E890E00FB660
:10517000F89480936100909361000FBE8BE399E0F7
:105180009093F3018093F2010E9489060E942A07FE
:105190008091E20084608093E200789480916107BE
:1051A0008823A1F01091E9001F709091EC00892FE5
:1051B000817090FD80E8182B1092E9008091E80042
:1051C00083FD0E94DF131F701093E90082E084BD0D
:1051D00093E095BD9AEF97BD80936E0010929C026C
:1051E00010929D0210929E0210929F020E94E8115E
:1051F000811102C00E9435110E9460108093340119
:1052000080913401882309F461C01092540184E232
:10521000809355010E94601081110E947431909119
:10522000340181E098279093C302282F291B2093F3
:10523000A102909134018093C40290913401809333
:10524000A00280913401811106C084EF80933E0159
:1052500085EF80933D0120913E01E22FE295EF70B2
:10526000F0E061A12F7081E090E0AC0101C0440F3B
:105270002A95EAF7342F3095362331A322A1242B27
:1052800022A320913D01E22FE295EF70F0E031A1E1
:105290002F7001C0880F2A95EAF7982F90959323D5
:1052A00091A392A1892B82A3EFE8F1E03197F1F766
:1052B00000C000001091C40265EC72E04EE351E0C2
:1052C0008DE3E82E81E0F82EFB012CC084E2809370
:1052D00054019ECFDA012D91AD01822F82958F70FE
:1052E00090E0DC0190968C9190E02F7002C0959533
:1052F00087952A95E2F78170D7019D917D01292F2D
:1053000022952F7030E0D90190962C9130E09F705B
:1053100002C0359527959A95E2F790E020FD92E03E
:10532000892B81938E2F861B8117A0F280913401E7
:105330008091340195E0811190E09093AD0285E079
:10534000891B8093AC0205E911E07AE9E72E71E050
:10535000F72EF80181918F018F3F11F00E943D09D6
:10536000E016F106B1F70AE911E060EAE62E61E025
:10537000F62ED8018D918D018F3F11F00E943D09CD
:10538000E016F106B1F78AE0EDEEF2E0DF01282F3A
:105390001D922A95E9F7E2EAF2E0DF011D928A9573
:1053A000E9F70E941919811102C00E94A01882E039
:1053B00090E00E94F3338093B10284E090E00E9479
:1053C00001349093AF028093AE020E947B26BFEF20
:1053D000E6E7F1E0B150E040F040E1F700C0000046
:1053E0000E947B268091ED0280FF08C06FEF7FEF67
:1053F00090E080E00E9425340E94E80783E090E07E
:105400000E94F3330E94620C0E946010882309F40A
:10541000EFC083E08093E80280FDECC080E88093D9
:1054200038050E942E306DE070E08BE792E00E941C
:10543000760C892BE9F58091E80263E070E081FD4C
:10544000DBC088E792E00E94760C892B89F56DE03D
:1054500070E088E692E00E94760C892B49F50E9464
:10546000F907605A75418F4F9F4F609343077093C0
:1054700044078093450790934607EBE3F5E080E00F
:1054800092E0DF019C011D9221503040E1F7F09342
:105490004207E09341078FEF9FEF90933A05809387
:1054A000390581E080934807809347071092E9020D
:1054B0008091B002811138C00E941919811104C075
:1054C0000E94A0180E94871888E090E00E94FB3399
:1054D00060933305709334058093350590933605BA
:1054E0008091FF0283608093FF026E7F71F40E94BF
:1054F000871888E090E00E94FB3360933305709337
:10550000340580933505909336050E948C080E94DF
:1055100085088091330580FF04C060E086950E9475
:10552000ED1C81E08093B0020E946010811102C0E6
:105530000E94773185E391E090934C0780934B076D
:1055400050E4652E8091610700E112E1853009F495
:105550008FC00E947B2632EBE32E32E0F32E4DEE1D
:10556000C42E42E0D42E2CEB32E0D601F70191910B
:105570008D912E173F0709F485C09817C1F30E943B
:105580006010882E10E0F60101916F01D7019D9007
:105590007D01901629F19026B12CAA24A394892D7F
:1055A0008A21B1F08820A1F0B9A21AA391E0802F3E
:1055B0008A2109F490E09BA30E945E1C8160782FF1
:1055C0009DA38CA349A15AA16BA18DA10E94B625D0
:1055D000B394AA0CB6E0BB12E2CFF7013197008377
:1055E0001F5F1A3081F60E94F907EE24E3944FC042
:1055F00080E010CF80E213CF85E792E024CF809146
:105600006107843029F10E94A00C10924F0788E1B5
:1056100090E00FB6F894A895809360000FBE60925A
:10562000600083B7817F846083BF83B7816083BF5D
:105630007894889583B78E7F83BF0FB6F894A8952A
:1056400080916000886180936000109260000FBEBE
:1056500080916007882361F00E947B26EDEEF2E0E6
:1056600081918111DCC4A7EFB2E0AE17BF07C1F78B
:1056700080916107853009F4C2CF0E94C9130E944E
:10568000831067CF98137BCF0E944A28E12C0E9499
:1056900060108091FE02882309F464C08091FD02AD
:1056A000E0913305E695E81BE093F902823009F0BA
:1056B000B8C0F0E0E756FD4FE4910E2F10E02AE06D
:1056C000C22E20E1D22E8091FA02882361F010923E
:1056D000FA020E94C71C9093F8028093F70210927E
:1056E000FC021092FB020E94C71CE091F702F091AD
:1056F000F8029C012E1B3F0B2F3F3F4798F520914E
:10570000BE022223B1F01092BE022091BC02309161
:10571000BD02821B930B8F3F9F4758F4205D3A4890
:105720003093BD022093BC028091FF028860809379
:10573000FF02A090FB02B090FC02E00FF11FF0937B
:10574000F802E093F70287EF92E0F6010995809165
:10575000FB029091FC02892B29F4AB2819F081E01F
:105760008093BE02C12CF12C8091C402C81608F4AB
:10577000C4C0F1100E94650B80914807882309F48A
:105780007CC18091EA029091EB020E944F1CC2976B
:1057900008F453C10E945E1C9093EB028093EA02CE
:1057A0008BE395E090934207809341070E9460103D
:1057B00060E0882309F4A8C181EE92E00E9484137E
:1057C00060E08DEC92E00E94841360E08BEC92E04C
:1057D0000E94841360E086EC92E00E94841360E0F3
:1057E00084EC92E00E94841360E08EEB92E00E94D1
:1057F000841381E00E9496138091C7020E94650C79
:10580000823009F479C108F402C1833009F478C107
:1058100060E086EA92E00E94841381E00E94961381
:10582000FBC0863059F4F0E0EA56FD4FE4910E2FAC
:1058300010E09AEFC92E9FE0D92E45CF893061F450
:10584000E695F0E0ED56FD4FE4910E2F10E083E574
:10585000C82E8FE0D82E37CF8F3061F4E695F0E078
:10586000E057FD4FE4910E2F10E0B8ECCB2EBEE0D8
:10587000DB2E29CF853159F4F0E0E357FD4FE49159
:105880000E2F10E0A3E4CA2EAEE0DA2E1CCF08E201
:1058900010E071ECC72E7DE0D72E883109F413CFCC
:1058A000833249F4EBE8F2E005911491F9EACF2E46
:1058B000FFE0DF2E08CF04EF11E064E8C62E6DE0B4
:1058C000D62E843209F4FFCE00ED17E053EEC52E3C
:1058D00057E0D52E853209F0F6CE8E2F63E00E9478
:1058E0002133E92FF0E0E857FD4FE4910E2F10E04F
:1058F000E3EBCE2EE6E1DE2EE6CE0C2D10E0F80135
:10590000E25CFE4F8081E82FE295EF70F0E0E0A1CD
:10591000F0E08F7002C0F595E7958A95E2F7E170A7
:10592000D801A35CBE4F2C91A22FA295AF70B0E01E
:1059300090968C9190E02F7002C0959587952A954E
:10594000E2F780FD5CC080E08E2BD801AB53BD4FE9
:10595000EC919E2F9370891709F44FC0EE0FEE0F54
:10596000E82BEC93D090C302DC0CEF70F0E0E05633
:10597000FE4F0F531D4F8081D8019C91890F8C934E
:10598000B12C8230ACF0ED2DF0E0E154FD4F808180
:105990008F5F80830E946010B82E882391F18AEA7D
:1059A000DD2021F0B1E0DB1203C08BE40E94D712AE
:1059B000F80180818F3FACF4ED2DF0E0E154FD4F14
:1059C0008081815080830E946010B82E8823E1F08E
:1059D00089EADD2021F0F1E0DF1203C08EE40E94AD
:1059E000D712D8018C91082E000C990B62E070E060
:1059F0000E943B33F8018083FB28C394B5CE82E03C
:105A0000A3CFBB24B394D4CFBB24B394EACF60E03C
:105A100088EB92E00E94841360E083EA92E00E94A7
:105A200084130E94831081FB662760F98DE992E060
:105A30000E94841381E00E94961380913905909111
:105A40003A05892B09F06FC0809147078823A9F098
:105A50000E94F907009143071091440720914507E0
:105A600030914607601B710B820B930B6F3F7F4F8A
:105A70008F4F9F4710F40E94A00CE11001C0F1105D
:105A80000E94BB0C0E9483109091EC02891721F0B8
:105A90008093EC020E94F90780916107843009F03D
:105AA00051CD83E08093E9008091E80082FF4ACDE8
:105AB0008091E80090E085FF0CC00E94A80690E26B
:105AC000E92EF12C8E010F5F1F4F882309F414C1BA
:105AD00091E08091E8008B778093E800992309F4A6
